{
  "contractName": "KittyFactory",
  "abi": [
    {
      "constant": false,
      "inputs": [],
      "name": "renounceOwnership",
      "outputs": [],
      "payable": false,
      "stateMutability": "nonpayable",
      "type": "function"
    },
    {
      "constant": true,
      "inputs": [
        {
          "name": "",
          "type": "uint256"
        }
      ],
      "name": "kittyToOwner",
      "outputs": [
        {
          "name": "",
          "type": "address"
        }
      ],
      "payable": false,
      "stateMutability": "view",
      "type": "function"
    },
    {
      "constant": true,
      "inputs": [
        {
          "name": "",
          "type": "uint256"
        }
      ],
      "name": "kitties",
      "outputs": [
        {
          "name": "name",
          "type": "string"
        },
        {
          "name": "dna",
          "type": "uint256"
        },
        {
          "name": "level",
          "type": "uint32"
        }
      ],
      "payable": false,
      "stateMutability": "view",
      "type": "function"
    },
    {
      "constant": true,
      "inputs": [],
      "name": "owner",
      "outputs": [
        {
          "name": "",
          "type": "address"
        }
      ],
      "payable": false,
      "stateMutability": "view",
      "type": "function"
    },
    {
      "constant": true,
      "inputs": [],
      "name": "isOwner",
      "outputs": [
        {
          "name": "",
          "type": "bool"
        }
      ],
      "payable": false,
      "stateMutability": "view",
      "type": "function"
    },
    {
      "constant": false,
      "inputs": [
        {
          "name": "newOwner",
          "type": "address"
        }
      ],
      "name": "transferOwnership",
      "outputs": [],
      "payable": false,
      "stateMutability": "nonpayable",
      "type": "function"
    },
    {
      "anonymous": false,
      "inputs": [
        {
          "indexed": false,
          "name": "kittyId",
          "type": "uint256"
        },
        {
          "indexed": false,
          "name": "name",
          "type": "string"
        },
        {
          "indexed": false,
          "name": "na",
          "type": "uint256"
        }
      ],
      "name": "NewKitty",
      "type": "event"
    },
    {
      "anonymous": false,
      "inputs": [
        {
          "indexed": true,
          "name": "previousOwner",
          "type": "address"
        },
        {
          "indexed": true,
          "name": "newOwner",
          "type": "address"
        }
      ],
      "name": "OwnershipTransferred",
      "type": "event"
    },
    {
      "constant": false,
      "inputs": [
        {
          "name": "_name",
          "type": "string"
        }
      ],
      "name": "createRandomKitty",
      "outputs": [],
      "payable": false,
      "stateMutability": "nonpayable",
      "type": "function"
    },
    {
      "constant": false,
      "inputs": [
        {
          "name": "_kittyId",
          "type": "uint256"
        }
      ],
      "name": "getDna",
      "outputs": [
        {
          "name": "",
          "type": "uint256"
        }
      ],
      "payable": false,
      "stateMutability": "nonpayable",
      "type": "function"
    },
    {
      "constant": true,
      "inputs": [
        {
          "name": "_owner",
          "type": "address"
        }
      ],
      "name": "getKittyByOwner",
      "outputs": [
        {
          "name": "",
          "type": "uint256[]"
        }
      ],
      "payable": false,
      "stateMutability": "view",
      "type": "function"
    }
  ],
  "bytecode": "0x60806040526010600155600154600a0a600255336000806101000a81548173ffffffffffffffffffffffffffffffffffffffff021916908373ffffffffffffffffffffffffffffffffffffffff1602179055506000809054906101000a900473ffffffffffffffffffffffffffffffffffffffff1673ffffffffffffffffffffffffffffffffffffffff16600073ffffffffffffffffffffffffffffffffffffffff167f8be0079c531659141344cd1fd0a4f28419497f9722a3daafe3b4186f6b6457e060405160405180910390a3610d5e806100dd6000396000f300608060405260043610610099576000357c0100000000000000000000000000000000000000000000000000000000900463ffffffff168063422627c31461009e578063715018a6146100df57806387c74868146100f65780638cc51eda146101635780638da5cb5b146102235780638f32d59b1461027a57806395e6c62f146102a9578063b0f25d6d14610341578063f2fde38b146103aa575b600080fd5b3480156100aa57600080fd5b506100c9600480360381019080803590602001909291905050506103ed565b6040518082815260200191505060405180910390f35b3480156100eb57600080fd5b506100f4610417565b005b34801561010257600080fd5b50610121600480360381019080803590602001909291905050506104e9565b604051808273ffffffffffffffffffffffffffffffffffffffff1673ffffffffffffffffffffffffffffffffffffffff16815260200191505060405180910390f35b34801561016f57600080fd5b5061018e6004803603810190808035906020019092919050505061051c565b60405180806020018481526020018363ffffffff1663ffffffff168152602001828103825285818151815260200191508051906020019080838360005b838110156101e65780820151818401526020810190506101cb565b50505050905090810190601f1680156102135780820380516001836020036101000a031916815260200191505b5094505050505060405180910390f35b34801561022f57600080fd5b506102386105fd565b604051808273ffffffffffffffffffffffffffffffffffffffff1673ffffffffffffffffffffffffffffffffffffffff16815260200191505060405180910390f35b34801561028657600080fd5b5061028f610626565b604051808215151515815260200191505060405180910390f35b3480156102b557600080fd5b506102ea600480360381019080803573ffffffffffffffffffffffffffffffffffffffff16906020019092919050505061067d565b6040518080602001828103825283818151815260200191508051906020019060200280838360005b8381101561032d578082015181840152602081019050610312565b505050509050019250505060405180910390f35b34801561034d57600080fd5b506103a8600480360381019080803590602001908201803590602001908080601f01602080910402602001604051908101604052809392919081815260200183838082843782019150505050505091929192905050506107af565b005b3480156103b657600080fd5b506103eb600480360381019080803573ffffffffffffffffffffffffffffffffffffffff169060200190929190505050610828565b005b60006003828154811015156103fe57fe5b9060005260206000209060030201600101549050919050565b61041f610626565b151561042a57600080fd5b600073ffffffffffffffffffffffffffffffffffffffff166000809054906101000a900473ffffffffffffffffffffffffffffffffffffffff1673ffffffffffffffffffffffffffffffffffffffff167f8be0079c531659141344cd1fd0a4f28419497f9722a3daafe3b4186f6b6457e060405160405180910390a360008060006101000a81548173ffffffffffffffffffffffffffffffffffffffff021916908373ffffffffffffffffffffffffffffffffffffffff160217905550565b60046020528060005260406000206000915054906101000a900473ffffffffffffffffffffffffffffffffffffffff1681565b60038181548110151561052b57fe5b9060005260206000209060030201600091509050806000018054600181600116156101000203166002900480601f0160208091040260200160405190810160405280929190818152602001828054600181600116156101000203166002900480156105d75780601f106105ac576101008083540402835291602001916105d7565b820191906000526020600020905b8154815290600101906020018083116105ba57829003601f168201915b5050505050908060010154908060020160009054906101000a900463ffffffff16905083565b60008060009054906101000a900473ffffffffffffffffffffffffffffffffffffffff16905090565b60008060009054906101000a900473ffffffffffffffffffffffffffffffffffffffff1673ffffffffffffffffffffffffffffffffffffffff163373ffffffffffffffffffffffffffffffffffffffff1614905090565b606080600080600560008673ffffffffffffffffffffffffffffffffffffffff1673ffffffffffffffffffffffffffffffffffffffff168152602001908152602001600020546040519080825280602002602001820160405280156106f15781602001602082028038833980820191505090505b50925060009150600090505b6003805490508110156107a4578473ffffffffffffffffffffffffffffffffffffffff166004600083815260200190815260200160002060009054906101000a900473ffffffffffffffffffffffffffffffffffffffff1673ffffffffffffffffffffffffffffffffffffffff1614156107975780838381518110151561078057fe5b906020019060200201818152505081806001019250505b80806001019150506106fd565b829350505050919050565b600080600560003373ffffffffffffffffffffffffffffffffffffffff1673ffffffffffffffffffffffffffffffffffffffff168152602001908152602001600020541415156107fe57600080fd5b61080782610847565b905060648181151561081557fe5b06810390506108248282610935565b5050565b610830610626565b151561083b57600080fd5b61084481610b75565b50565b600080826040516020018082805190602001908083835b602083101515610883578051825260208201915060208101905060208303925061085e565b6001836020036101000a0380198251168184511680821785525050505050509050019150506040516020818303038152906040526040518082805190602001908083835b6020831015156108ec57805182526020820191506020810190506020830392506108c7565b6001836020036101000a03801982511681845116808217855250505050505090500191505060405180910390206001900490506002548181151561092c57fe5b06915050919050565b600060016003606060405190810160405280868152602001858152602001600163ffffffff168152509080600181540180825580915050906001820390600052602060002090600302016000909192909190915060008201518160000190805190602001906109a5929190610c8d565b506020820151816001015560408201518160020160006101000a81548163ffffffff021916908363ffffffff1602179055505050039050336004600083815260200190815260200160002060006101000a81548173ffffffffffffffffffffffffffffffffffffffff021916908373ffffffffffffffffffffffffffffffffffffffff160217905550610a816001600560003373ffffffffffffffffffffffffffffffffffffffff1673ffffffffffffffffffffffffffffffffffffffff16815260200190815260200160002054610c6f90919063ffffffff16565b600560003373ffffffffffffffffffffffffffffffffffffffff1673ffffffffffffffffffffffffffffffffffffffff168152602001908152602001600020819055507fe6bab441a24f36e5410767faf6d9d4232117d05a15480a095a7971538a5b3b208184846040518084815260200180602001838152602001828103825284818151815260200191508051906020019080838360005b83811015610b34578082015181840152602081019050610b19565b50505050905090810190601f168015610b615780820380516001836020036101000a031916815260200191505b5094505050505060405180910390a1505050565b600073ffffffffffffffffffffffffffffffffffffffff168173ffffffffffffffffffffffffffffffffffffffff1614151515610bb157600080fd5b8073ffffffffffffffffffffffffffffffffffffffff166000809054906101000a900473ffffffffffffffffffffffffffffffffffffffff1673ffffffffffffffffffffffffffffffffffffffff167f8be0079c531659141344cd1fd0a4f28419497f9722a3daafe3b4186f6b6457e060405160405180910390a3806000806101000a81548173ffffffffffffffffffffffffffffffffffffffff021916908373ffffffffffffffffffffffffffffffffffffffff16021790555050565b6000808284019050838110151515610c8357fe5b8091505092915050565b828054600181600116156101000203166002900490600052602060002090601f016020900481019282601f10610cce57805160ff1916838001178555610cfc565b82800160010185558215610cfc579182015b82811115610cfb578251825591602001919060010190610ce0565b5b509050610d099190610d0d565b5090565b610d2f91905b80821115610d2b576000816000905550600101610d13565b5090565b905600a165627a7a72305820e1b6af283ee1a6c69f7cbcf57aaf126165e16f6e2440b3256dcef767f5149f5b0029",
  "source": "// SPDX-License-Identifier: MIT\npragma solidity ^0.4.25;\n\nimport \"./ownable.sol\";\nimport \"./safemath.sol\";\n\ncontract KittyFactory is Ownable{\n\n\n    using SafeMath for uint256;\n    using SafeMath32 for uint32;\n    using SafeMath16 for uint16;\n\n    event NewKitty(uint kittyId, string name, uint na);\n\n    uint dnaDigits = 16;\n    uint dnaModulus = 10 ** dnaDigits;\n    //uint cooldownTime = 0.5 days;\n\n    struct Kitty {\n    string name;\n    uint dna;\n    uint32 level;\n    // uint32 readyTime;\n    // uint16 winCount;\n    // uint16 lossCount;\n  }\n\n  Kitty[] public kitties;\n\n  mapping (uint => address) public kittyToOwner;\n  mapping (address => uint) ownerKittyCount;\n\n  function _createKitty(string _name, uint _dna) internal {\n    uint id = kitties.push(Kitty(_name, _dna, 1)) - 1;\n    kittyToOwner[id] = msg.sender;\n    ownerKittyCount[msg.sender] = ownerKittyCount[msg.sender].add(1);\n    emit NewKitty(id, _name, _dna);\n  }\n\n  function _generateRandomDna(string _str) private view returns (uint) {\n    uint rand = uint(keccak256(abi.encodePacked(_str)));\n    return rand % dnaModulus;\n  }\n\n  function createRandomKitty(string _name) public {\n    require(ownerKittyCount[msg.sender] == 0);\n    uint randDna = _generateRandomDna(_name);\n    randDna = randDna - randDna % 100;\n    _createKitty(_name, randDna);\n  }\nfunction getDna(uint _kittyId) public returns(uint){\n  return kitties[_kittyId].dna;\n}\nfunction getKittyByOwner(address _owner) external view returns(uint[]) {\n    uint[] memory result = new uint[](ownerKittyCount[_owner]);\n    uint counter = 0;\n    for (uint i = 0; i < kitties.length; i++) {\n      if (kittyToOwner[i] == _owner) {\n        result[counter] = i;\n        counter++;\n      }\n    }\n    return result;\n  }\n}",
  "sourcePath": "/Users/maddie/Projects/CPSC_559/559_miderm_project/contracts/kittyFactory.sol",
  "compiler": {
    "name": "solc",
    "version": "0.4.25+commit.59dbf8f1.Emscripten.clang"
  },
  "schemaVersion": "3.4.13",
  "updatedAt": "2023-03-27T03:09:48.963Z",
  "networkType": "ethereum",
  "devdoc": {
    "methods": {
      "isOwner()": {
        "return": "true if `msg.sender` is the owner of the contract."
      },
      "owner()": {
        "return": "the address of the owner."
      },
      "renounceOwnership()": {
        "details": "Allows the current owner to relinquish control of the contract."
      },
      "transferOwnership(address)": {
        "details": "Allows the current owner to transfer control of the contract to a newOwner.",
        "params": {
          "newOwner": "The address to transfer ownership to."
        }
      }
    }
  },
  "userdoc": {
    "methods": {
      "renounceOwnership()": {
        "notice": "Renouncing to ownership will leave the contract without an owner. It will not be possible to call the functions with the `onlyOwner` modifier anymore."
      }
    }
  }
}